:100000000C9486000C9439060C940E060C94E305AF
:100010000C94B0000C94B0000C94B0000C94B000A0
:100020000C94B0000C94B0000C94B0000C94B00090
:100030000C94B0000C94B0000C94B0000C94B00080
:100040000C94B0000C94B0000C9499050C94B00082
:100050000C948E060C9464060C94B0000C94B000C2
:100060000C94B0000C94B0000C94C4060C94B00036
:100070000C94B0000C94B0000C94B0000C94B00040
:100080000C94B0000C94B0000C94B000000021005F
:10009000240027002A0000002200250028002B0051
:1000A00000002000230026002900020202020202B2
:1000B000020204040404040404040303030303030A
:1000C00003030101010101010101010204081020E3
:1000D0004080010204081020408001020408102022
:1000E000408001020408102040800000000203004C
:1000F0000A0B0000000005040908000000000000D1
:1001000000000000000000000000F40711241FBEE2
:10011000CFEFD0E4DEBFCDBF11E0A0E0B1E0ECEC6A
:10012000F0E200E00BBF02C007900D92AC37B107C0
:10013000D9F722E0ACE7B1E001C01D92A53FB207BC
:10014000E1F710E0C6E8D0E004C02197FE010E946C
:10015000EF0DC538D107C9F70E9430080C94641020
:100160000C940000FC019081909528E081E397FFBA
:1001700003C0990F982701C0990F2150C1F78181C1
:10018000892798E021E387FF03C0880F822701C0F9
:10019000880F9150C1F70895282F90914A0281E06D
:1001A000913208F042C0809126028111FCCF8091EB
:1001B000490232E030932602209325022FEF20934C
:1001C000240229E232E0309323022093220210928B
:1001D00021029093200210921F0290911F02880F1B
:1001E000892B80931F0280911E02813029F5109285
:1001F0001E0280911F028093BB008091BC0083FD92
:10020000F8CF85EC8093BC00809126028230E1F328
:10021000809124028F3F91F080912402803281F0FE
:1002200080912402803371F084E0109228021092B1
:100230004A0210922702089585EEE4CF80E0F5CFC0
:1002400082E0F3CF83E0F1CF982F809126028111D5
:10025000FCCF81E080932602809325022FEF20932C
:1002600024022EEF31E030932302209322021092D9
:1002700021022FEF260F2093200280931F028091EE
:100280001F02990F982B90931F0280911E028130BC
:10029000C9F410921E0280911F028093BB008091CE
:1002A000BC0083FDF8CF85EC8093BC0080912602D2
:1002B0008130E1F380912102861710F460912102D0
:1002C000862F089585EEF0CF8BE99FE00197F1F737
:1002D000089582508A3088F5E82FF0E0EE58FE4FFE
:1002E0000C94EF0D9A019E017C0182019D019D01FC
:1002F00086018C0190019601809180008F77809318
:1003000080000895809180008F7DF9CF8091B000AA
:100310008F778093B00008958091B0008F7DF9CFE2
:10032000809190008F778093900008958091900045
:100330008F7DF9CF84B58F7784BD089584B58F7D87
:10034000FBCFCF93DF93282F30E0F901E651FF4F29
:100350008491F901E653FF4FD491F901E655FF4F1F
:10036000C491CC23A1F081110E946901EC2FF0E02F
:10037000EE0FFF1FE056FF4FA591B491EC91ED23D6
:1003800081E090E009F480E0DF91CF91089580E072
:1003900090E0FACF1F93CF93DF93282F30E0F9013D
:1003A000E651FF4F8491F901E653FF4FD491F901D3
:1003B000E655FF4FC491CC23A9F0162F81110E945E
:1003C0006901EC2FF0E0EE0FFF1FEA56FF4FA591F9
:1003D000B4918FB7F894EC91111108C0D095DE2339
:1003E000DC938FBFDF91CF911F910895DE2BF8CF63
:1003F000CF93DF9390E0FC01E653FF4F24918655A5
:100400009F4FFC0184918823C9F090E0880F991FC9
:10041000FC01E457FF4FA591B491FC01EA56FF4F50
:10042000C591D49161110DC09FB7F8948C9120951E
:1004300082238C938881282328839FBFDF91CF91CB
:100440000895623051F49FB7F8943C91822F8095C3
:1004500083238C93E8812E2BEFCF8FB7F894EC9108
:100460002E2B2C938FBFEACF81E08093F401089567
:10047000089508950895AF92BF92CF92DF92EF92C0
:10048000FF920F931F93CF93DF936C017B018B013E
:10049000040F151FEB015E01AE18BF08C017D1078E
:1004A00059F06991D601ED91FC910190F081E02D18
:1004B000C6010995892B79F7C501DF91CF911F916D
:1004C0000F91FF90EF90DF90CF90BF90AF90089585
:1004D000FC01538D448D252F30E0842F90E0821B4A
:1004E000930B541710F0CF96089501970895FC01CF
:1004F000918D828D981761F0A28DAE0FBF2FB11D27
:100500005D968C91928D9F5F9F73928F90E008957E
:100510008FEF9FEF0895FC01918D828D981731F038
:10052000828DE80FF11D858D90E008958FEF9FEF8C
:100530000895FC01918D228D892F90E0805C9F4F62
:10054000821B91098F73992708958BE492E00E9492
:10055000990221E0892B09F420E0822F0895FC0103
:10056000A48DA80FB92FB11DA35ABF4F2C91848D14
:1005700090E001968F739927848FA689B7892C9371
:10058000A089B1898C91837080648C93938D848DC4
:10059000981306C00288F389E02D80818F7D8083C7
:1005A0000895EF92FF920F931F93CF93DF93EC0187
:1005B00081E0888F9B8D8C8D98131AC0E889F9890A
:1005C000808185FF15C09FB7F894EE89FF8960830D
:1005D000E889F98980818370806480839FBF81E08E
:1005E00090E0DF91CF911F910F91FF90EF900895D0
:1005F000F62E0B8D10E00F5F1F4F0F731127E02EAB
:100600008C8D8E110CC00FB607FCFACFE889F989E2
:10061000808185FFF5CFCE010E94AF02F1CFEB8D37
:10062000EC0FFD2FF11DE35AFF4FF0829FB7F894B6
:100630000B8FEA89FB8980818062CFCF682F8BE4A2
:1006400092E00C94D102CF93DF93EC01888D882344
:10065000B9F0AA89BB89E889F9898C9185FD03C025
:10066000808186FD0DC00FB607FCF7CF8C9185FF0A
:10067000F2CF808185FFEDCFCE010E94AF02E9CF9E
:10068000DF91CF91089580E090E0892B29F00E94BE
:10069000A50281110E94000080E090E0892B49F0C2
:1006A00080E090E0892B29F00E94000081110C94D9
:1006B0000000089585ED8093BC008091BC0084FD0E
:1006C000FCCF1092260208952091A201260F332715
:1006D000331F21323105ECF420912602FC0190E019
:1006E00080E0243069F082E00895A091A201219178
:1006F000AC014E575E4FA40FB52FB11D2C93019640
:10070000861798F38091A201680F6093A20180E0A0
:10071000089581E008950895E091F1018091F0013C
:10072000E81730F4F0E0E250FE4F808190E0089549
:100730008FEF9FEF08959091F1018091F0012FEFDD
:100740003FEF981748F4E92FF0E0E250FE4F208188
:1007500030E09F5F9093F101C90108958091F0010D
:100760009091F101891B990B0895CF92DF92EF923E
:10077000FF920F931F93CF93DF937C01CB018A01EC
:1007800020912702222389F0EB016B01C40ED51EB4
:10079000CC15DD0569F06991D701ED91FC910190CF
:1007A000F081E02DC7010995F3CF642F0E94640307
:1007B000C801DF91CF911F910F91FF90EF90DF90D3
:1007C000CF900895CF93DF931F92CDB7DEB76983A3
:1007D000209127022223F9F020914A02203258F07A
:1007E00021E030E0FC013383228390E080E00F9031
:1007F000DF91CF91089580912802E82FF0E0E75D26
:10080000FD4F998190838F5F8093280280934A02E5
:1008100081E090E0ECCF61E0CE0101960E9464039C
:10082000F7CFCF93C82F8091F40221E020932702C5
:10083000809349021092280210924A02692F88EE92
:1008400092E00E94E2036C2F88EE92E00E94E203A5
:1008500081E00E94CC0091E0811190E0892FCF913E
:10086000089590E080E00895FC0101900020E9F7F0
:100870003197AF01481B590BBC018BE492E00C94FB
:100880003B028F929F92AF92BF920F931F93CF9391
:10089000DF93CDB7DEB7A1970FB6F894DEBF0FBEDA
:1008A000CDBF19A2423008F44AE08E010F5D1F4F00
:1008B000842E912CB12CA12CA50194010E94CD0D68
:1008C000E62FB901CA01EA30F4F4E05DD801EE93F5
:1008D0008D01232B242B252B79F790E080E01097B6
:1008E00019F0CD010E943404A1960FB6F894DEBF32
:1008F0000FBECDBFDF91CF911F910F91BF90AF90F1
:100900009F908F900895E95CE1CFCF93DF930E9491
:100910003404EC018CE291E00E9434048C0F9D1FA2
:10092000DF91CF9108954F925F926F927F928F9255
:100930009F92AF92BF92CF92DF92EF92FF920F936E
:100940001F93CF936B017C01742EAC019B010E941D
:100950002F10882399F087E791E0CF911F910F9195
:10096000FF90EF90DF90CF90BF90AF909F908F90CF
:100970007F906F905F904F900C9434044601570124
:10098000E894B7F82FEF3FEF4FE75FE7C501B401F9
:100990000E942F1081110DC02FEF3FEF4FE75FE74F
:1009A000C501B4010E94650E18161CF48FE291E097
:1009B000D4CF2FEF3FEF4FE75FE4C701B6010E94AE
:1009C000BD0F18161CF483E391E0C7CF2FEF3FEF64
:1009D0004FE75FECC701B6010E94650E87FDF3CFBC
:1009E00020E030E0A901C701B6010E94650E10E0C9
:1009F00000E087FF08C08DE20E941E038C01F7FA19
:100A0000F094F7F8F094C0E060E070E080E09FE3DD
:100A10007C1641F020E030E040E251E40E946A0E92
:100A2000CF5FF6CFA70196010E94F90D2B013C0183
:100A30000E94DC0E4B015C014AE00E9441047C01F3
:100A4000E00EF11ECC23B1F1C501B4010E940B0FE1
:100A50009B01AC01C301B2010E94F80D4B015C0186
:100A60008EE20E941E03E80EF91EC15018F120E02C
:100A700030E040E251E4C501B4010E94C20F2B01F5
:100A80003C010E94DC0E4B01B12CA12C4AE0C501B7
:100A9000B4010E944104E80EF91EC501B4010E9490
:100AA0000B0F9B01AC01C301B2010E94F80D4B0179
:100AB0005C01DBCFC701CF911F910F91FF90EF90A9
:100AC000DF90CF90BF90AF909F908F907F906F906E
:100AD0005F904F900895CF92DF92EF92FF92CF9365
:100AE000DF936C01990FEE08FF08F7FE17C08DE247
:100AF0000E941E03EC0166277727CB016C197D0944
:100B00008E099F094AE00E9441048C0F9D1FDF91CE
:100B1000CF91FF90EF90DF90CF9008954AE0C7010A
:100B2000B601DF91CF91FF90EF90DF90CF900C94C2
:100B300041041F920F920FB60F9211242F933F93EF
:100B40008F939F93AF93BF938091FA019091FB0194
:100B5000A091FC01B091FD013091F90123E0230F38
:100B60002D3768F126E8230F0296A11DB11D2093B1
:100B7000F9018093FA019093FB01A093FC01B093DB
:100B8000FD018091F5019091F601A091F701B091DE
:100B9000F8010196A11DB11D8093F5019093F60116
:100BA000A093F701B093F801BF91AF919F918F91FE
:100BB0003F912F910F900FBE0F901F9018950196A7
:100BC000A11DB11DD4CF1F920F920FB60F92112409
:100BD0000BB60F922F933F934F935F936F937F9337
:100BE0008F939F93AF93BF93EF93FF93E091040193
:100BF000F09105010995FF91EF91BF91AF919F9100
:100C00008F917F916F915F914F913F912F910F90B5
:100C10000BBE0F900FBE0F901F9018951F920F9252
:100C20000FB60F9211240BB60F922F933F934F9351
:100C30005F936F937F938F939F93AF93BF93EF9344
:100C4000FF93E0910201F09103010995FF91EF916B
:100C5000BF91AF919F918F917F916F915F914F91D4
:100C60003F912F910F900BBE0F900FBE0F901F90D2
:100C700018951F920F920FB60F9211240BB60F9278
:100C80002F933F934F935F936F937F938F939F9394
:100C9000AF93BF93EF93FF93E0910001F0910101B7
:100CA0000995FF91EF91BF91AF919F918F917F91A6
:100CB0006F915F914F913F912F910F900BBE0F90CD
:100CC0000FBE0F901F9018951F920F920FB60F92A4
:100CD00011240BB60F922F933F934F935F936F9313
:100CE0007F938F939F93AF93BF93EF93FF938BE487
:100CF00092E00E94AF02FF91EF91BF91AF919F915F
:100D00008F917F916F915F914F913F912F910F90B4
:100D10000BBE0F900FBE0F901F9018951F920F9251
:100D20000FB60F9211240BB60F922F938F939F93B0
:100D3000EF93FF93E0915B02F0915C028081E09180
:100D40006102F091620282FD1DC090818091640277
:100D50008F5F8F7320916502821741F0E0916402EA
:100D6000F0E0E55BFD4F958F80936402FF91EF917A
:100D70009F918F912F910F900BBE0F900FBE0F90F0
:100D80001F9018958081F2CF1F920F920FB60F928D
:100D900011240BB60F922F933F934F935F936F9352
:100DA0007F938F939F93AF93BF93EF93FF93809124
:100DB000B900887F803609F44DC008F040C0883201
:100DC00009F4A9C028F5803109F49DC0C8F488232E
:100DD00009F407C1883009F496C0FF91EF91BF91E3
:100DE000AF919F918F917F916F915F914F913F91C3
:100DF0002F910F900BBE0F900FBE0F901F90189564
:100E0000883109F488C0803241F78093240214C0ED
:100E1000803409F4A5C040F48033B9F38833E9F68F
:100E20008093240285ECBCC0803509F489C08835E4
:100E300009F49EC0883489F60E945A03CECF8839BF
:100E400009F494C038F5883729F050F4883611F049
:100E5000803719F683E0809326021092C40157C0B0
:100E6000883809F483C0803919F0803809F0B5CF8B
:100E70008091C401803208F079C0E091C40181E022
:100E80008E0F8093C4018091BB00F0E0EC55FE4FC3
:100E900080833DC0803B39F0E0F4803A09F485C09E
:100EA000883A09F09ACF84E0809326021092A30139
:100EB0001092A201E091C801F091C90109958091B9
:100EC000A20181110FC081E08093A20110928201E2
:100ED00009C0803C09F4A6CF883C09F4A3CF883B25
:100EE00009F07BCFE091A30181E08E0F8093A301F5
:100EF000F0E0EE57FE4F80818093BB009091A301FC
:100F00008091A20131C080911F028093BB0085ECCB
:100F10008093BC0062CF90912102809120029817AB
:100F2000B8F58091220290912302E091210221E004
:100F30002E0F20932102E80FF92FF11D8081E5CFBC
:100F40002091220230912302E091210281E08E0F54
:100F5000809321028091BB00E20FF32FF11D80836B
:100F60009091210280912002981788F285E8D0CFD5
:100F70002091220230912302E091210281E08E0F24
:100F8000809321028091BB00E20FF32FF11D80833B
:100F900080912502811150CF81E080931E0284EA66
:100FA0008093BC001092260218CF85EC8093BC0081
:100FB000109226028091C401803230F4E091C40185
:100FC000F0E0EC55FE4F10826091C40170E0E091BA
:100FD000C601F091C70184EA91E009951092C4011D
:100FE000FCCE1092240228CFEBE4F2E013821282AE
:100FF00088EE93E0A0E0B0E084839583A683B78376
:101000002CE031E03183208325EC30E035872487E4
:1010100024EC30E03787268720EC30E0318B208BC2
:1010200021EC30E0338B228B22EC30E0358B248BAB
:1010300026EC30E0378B268B118E128E138E148E99
:10104000E8EEF2E01382128284839583A683B7834D
:101050008EE191E09183808384E48093F40208958B
:10106000CF93DF93CDB7DEB72E970FB6F894DEBFE0
:101070000FBECDBF789484B5836084BD85B5836091
:1010800085BD80916E00816080936E0092E09093A8
:101090008100809181008160809381008091800037
:1010A0008160809380008091B10084608093B10062
:1010B0008091B00081608093B00080919100836046
:1010C000809391008091900081608093900087E8E8
:1010D00080937A001092C100E0915B02F0915C0273
:1010E0009083E0915702F09158021082E0915902EA
:1010F000F0915A0280E1808310926302E0915F02D6
:10110000F091600286E08083E0915D02F0915E02E2
:10111000808188698083E0915D02F0915E02808128
:101120008F7D808387E391E00E94850480E491E0D5
:101130000E94850461E08BE10E94F80161E08AE190
:101140000E94F80160E08BE10E94CA0160E08AE140
:101150000E94CA0180916E008E7F80936E0061E0D4
:1011600083E00E94F80181E884BD81E085BD8CE1C7
:1011700087BD62E08AE00E94F80160E08EE00E9494
:10118000F80161E08CE10E94F80161E08CE10E94CD
:10119000CA0161E080E00E94F80161E080E00E9405
:1011A000CA0162E082E00E94F80160E08CE00E94E7
:1011B000F80160E08BE00E94F80161E084E00E94A9
:1011C000F80161E084E00E94CA011FB7F8948091A1
:1011D000C501811127C0EEEAF0E08491EEECF0E069
:1011E0009491E82FF0E0EE0FFF1FE457FF4FA59119
:1011F000B491EC91E92321F461E084E00E94CA01FA
:1012000061E084E00E94F8018CB580618CBD8CB5F2
:1012100080648CBD61E087E00E94F80161E085E0B8
:101220000E94F8018091C5018F5F8093C5011FBFA7
:101230001092F1011092F0011092280210924A02CD
:101240001092260211E01093250210921E0261E016
:1012500081E10E94CA0161E080E10E94CA0180919F
:10126000B9008E7F8093B9008091B9008D7F809303
:10127000B90088E48093B80085E48093BC0088E3DB
:1012800092E09093C9018093C80189E392E0909322
:10129000C7018093C60182EA90E30E941104809303
:1012A000F2011092CE011092CA011092CB0110925D
:1012B000CC011092CD011093270288E5809349025A
:1012C0001092280210924A0260E088EE92E00E949A
:1012D000E20368E088EE92E00E94E20381E00E946F
:1012E000CC00811140C060E188E50E942401109289
:1012F000F1018093F0018031B1F50EEC11E020E5B1
:10130000E22E21E0F22E88EE92E00E949B036C0117
:1013100099279F938F93FF92EF921F930F930E94B1
:1013200034108091CA019091CB01A091CC01B09171
:10133000CD018C0D911DA11DB11D8093CA0190930B
:10134000CB01A093CC01B093CD010E5F1F4F0F9046
:101350000F900F900F900F900F9081E00E3E1807A6
:1013600091F681E001C080E08093EF0185E591E096
:101370000E9434048091EF01882309F442C18EEC6D
:1013800091E00E94850484E392E0909305018093AC
:10139000040180916900806380936900EA9A15E0F6
:1013A00061E08DE00E94CA0108E70E9464010150DB
:1013B000E1F760E08DE00E94CA0108E70E94640145
:1013C0000150E1F7115061F78AE591E00E94850430
:1013D0008BE492E00E94230300E89AE6E92E91E074
:1013E000F92EFE0131966F011E01FFE02F0E311C18
:1013F0001A99FECF60E080E00E94CA010CB405FC9F
:1014000003C10EBD00000DB407FEFDCF7EB41EBCAF
:1014100000000DB407FEFDCF1EB561E080E00E9424
:10142000CA017F921F93FF92EF92DF92CF920E94A8
:101430003410C6010E9434048BE492E00E9423031E
:101440008091F4010F900F900F900F900F900F90DC
:10145000882309F4EBC01092F4018CE291E00E9421
:1014600034048BE492E00E942303609006017090A4
:1014700007018FEF681A780A7092070160920601DF
:101480006091F30181E068276093F3018DE00E9491
:10149000CA0190E269169EE4790608F4AFC0109282
:1014A0000701109206011091F201412C512C3201DA
:1014B00053014201112309F46BC080E094E20E94C1
:1014C0001104182F882309F4BAC080E1782E0E94F5
:1014D00064017A947110FBCF66E08091F4020E945F
:1014E00024011092F1018093F001863009F0A7C029
:1014F0003E01E9E06E0E711C230188EE92E00E942D
:101500009B03F30181933F012E163F06B1F7C20101
:101510000E94B2009B85891392C0CE010C960E9456
:10152000B2009E8589138BC069857A8576276727E7
:10153000762790E080E00E940B0F20E030E04FE241
:1015400053E40E94C20F20E03FEF4FE757E40E94B0
:101550006A0E20E030E044E352E40E94F80D4B01B3
:101560005C016C857D8576276727762790E080E093
:101570000E940B0F20E030E048EC52E40E94C20FC2
:1015800020E03FEF4FE757E40E946A0E2B013C0139
:101590008FE691E00E9434048AE00E94A10121E0DC
:1015A00030E0892B11F030E020E0C9010E946B058A
:1015B0008CE20E941E038EE00E94A1010E946B0536
:1015C0008CE20E941E03112361F142E0C501B401C7
:1015D0000E9493048CE20E941E0342E0C301B20108
:1015E0000E9493048CE291E00E9434041092F40172
:1015F0008091F4018823E1F31092F4010E944303E7
:10160000F7CE87E791E0BDCE1EBC00000DB407FE0B
:10161000FDCF1EB50EBD00000DB407FEFDCF7EB49C
:10162000FCCE83E791E00E943404DCCF8EE491E0AD
:101630000E9434048BE492E00E942303DFCF412C0C
:10164000512C32015301420110E0A2CF2F923F9260
:101650004F925F926F927F928F929F92AF92BF92C2
:10166000CF92DF92EF92FF920F931F93CF93DF936E
:10167000CDB7DEB72B970FB6F894DEBF0FBECDBF48
:101680007C013B018A01FC0117821682838181FF64
:10169000DDC1CE0101965C01F7019381F30193FD59
:1016A000859193FF81913F01882309F453C18532CD
:1016B00039F493FD859193FF81913F01853229F49F
:1016C000B70190E00E943F0DE7CF912C212C312CE7
:1016D000FFE1F31538F08B3211F190F4803209F10B
:1016E000833229F137FC3CC020ED280F2A3050F519
:1016F00036FE20C08AE0989E200D1124922E06C04E
:101700008D3291F0803371F7689430F8F30193FDD6
:10171000859193FF81913F018111DACF21C06894B7
:1017200031F8689432F8F2CF689433F8EFCF6894C8
:1017300034F8ECCFEAE02E9E200D1124222E68947E
:1017400035F8E4CF8E3229F436FC04C1689436F8BB
:10175000DDCF8C3619F4689437F8D8CF8836B1F2DB
:10176000982F9F7D95549330E0F08336A1F1833715
:10177000C1F1833509F063C02801F2E04F0E511C1E
:10178000F801C080D180692D70E036FC02C06FEF97
:101790007FEFC6010E94290D4C01689437F8820141
:1017A0000AC00C5F1F4FFFE3F98388248394912CB8
:1017B0006501E89437F833FE2DC0522C8114910452
:1017C00071F5552009F468CFB70180E290E00E94DE
:1017D0003F0D5A94F6CFF801808189830E5F1F4F29
:1017E000E4CF2801F2E04F0E511CF801C080D180F7
:1017F000692D70E036FC02C06FEF7FEFC6010E94DA
:10180000340D4C018201D5CFB70180E290E00E94F7
:101810003F0D2A942814190409F0B0F7CECFF60131
:1018200037FC859137FE81916F01B70190E00E94EE
:101830003F0D51105A94F1E08F1A9108BFCF8436B2
:1018400019F0893609F077C0F80137FE6BC0608166
:101850007181828193810C5F1F4FF32DFF763F2EA4
:1018600097FF09C090958095709561957F4F8F4F38
:101870009F4F689437F82AE030E0A5010E946F0D71
:10188000C82ECA188C2C432C36FE0CC0E89440F8A5
:10189000C91440F434FE05C032FC03C0F32DFE7EB3
:1018A0004F2E892C44FEAAC0FE01EC0DF11D808153
:1018B000803309F09CC0242D297E422E842D88700F
:1018C000582E43FCAAC040FEA4C09C2C821418F4DD
:1018D0002C0C922C981844FEA6C0B70180E390E02F
:1018E0000E943F0D42FE09C088E790E041FE02C021
:1018F00088E590E0B7010E943F0DC91408F49FC02D
:10190000CA94D12C9FEFC91AD90ACA0CDB1CF60164
:1019100082916F01B70190E00E943F0DAC14BD04AD
:10192000B1F74FCF60817181072E000C880B990BA6
:101930000E5F1F4F92CFD32CE894D4F82AE030E00A
:101940008537E1F1232D297FD22E8F36A9F1F0F4CE
:10195000883551F1F701868197812B960FB6F8945F
:10196000DEBF0FBECDBFDF91CF911F910F91FF90D2
:10197000EF90DF90CF90BF90AF909F908F907F902F
:101980006F905F904F903F902F900895803749F06F
:10199000883701F7D4FE02C06894D2F820E130E025
:1019A0000DC06894D4F8F6CF34FE03C0822F866051
:1019B000D82E20E132E002C028E030E0F801D7FE66
:1019C0000FC060817181828193810C5F1F4FA501DF
:1019D0000E946F0DC82ECA183D2CE89437F852CFDC
:1019E0006081718190E080E00E5F1F4FF0CF42FC7C
:1019F00002C0839463CF8394839460CF842D8678D0
:101A000009F45CCFF6CFB70180E290E00E943F0D71
:101A100083948214C0F3512C5ECF522C5818821438
:101A200008F459CFF8CF842D867809F466CF8BE27D
:101A300041FE80E247FC8DE2B70190E05CCFB70148
:101A400080E390E00E943F0D9A9457CF8FEF9FEF75
:101A500084CFFC010590615070400110D8F780954B
:101A600090958E0F9F1F0895FC016150704001906A
:101A70000110D8F7809590958E0F9F1F08950F93B2
:101A80001F93CF93DF93182F092FEB018B8181FDDB
:101A900009C01FEF0FEF812F902FDF91CF911F9182
:101AA0000F91089582FF14C02E813F818C819D810A
:101AB000281739073CF4E881F981CF010196998311
:101AC000888310838E819F8101969F838E83E3CFCD
:101AD000E885F985812F0995892BA1F3DACFFA01E1
:101AE000AA27283051F1203181F1E8946F936E7F5D
:101AF0006E5F7F4F8F4F9F4FAF4FB1E03ED0B4E04E
:101B00003CD0670F781F891F9A1FA11D680F791F8E
:101B10008A1F911DA11D6A0F711D811D911DA11D9F
:101B200020D009F468943F912AE0269F11243019AF
:101B3000305D3193DEF6CF010895462F4770405D4A
:101B40004193B3E00FD0C9F7F6CF462F4F70405DF9
:101B50004A3318F0495D31FD4052419302D0A9F754
:101B6000EACFB4E0A6959795879577956795BA954E
:101B7000C9F700976105710508959B01AC010A2E14
:101B800006945795479537952795BA95C9F7620FEB
:101B9000731F841F951FA01D0895A1E21A2EAA1B72
:101BA000BB1BFD010DC0AA1FBB1FEE1FFF1FA2170D
:101BB000B307E407F50720F0A21BB30BE40BF50B0A
:101BC000661F771F881F991F1A9469F76095709593
:101BD000809590959B01AC01BD01CF010895EE0F5A
:101BE000FF1F0024001C0BBE0790F691E02D099406
:101BF0005058BB27AA270E94100E0C94830F0E94F6
:101C0000750F38F00E947C0F20F039F49F3F19F4D3
:101C100026F40C94720F0EF4E095E7FB0C946C0F15
:101C2000E92F0E94940F58F3BA17620773078407CD
:101C3000950720F079F4A6F50C94B60F0EF4E09514
:101C40000B2EBA2FA02D0B01B90190010C01CA0176
:101C5000A0011124FF27591B99F0593F50F4503E21
:101C600068F11A16F040A22F232F342F4427585F13
:101C7000F3CF469537952795A795F0405395C9F72B
:101C80007EF41F16BA0B620B730B840BBAF09150E3
:101C9000A1F0FF0FBB1F661F771F881FC2F70EC082
:101CA000BA0F621F731F841F48F487957795679555
:101CB000B795F7959E3F08F0B0CF9395880F08F041
:101CC0009927EE0F9795879508950E94480F08F47D
:101CD00081E008950E947E0E0C94830F0E947C0F79
:101CE00058F00E94750F40F029F45F3F29F00C94E2
:101CF0006C0F51110C94B70F0C94720F0E94940F3B
:101D000068F39923B1F3552391F3951B550BBB272A
:101D1000AA2762177307840738F09F5F5F4F220F6F
:101D2000331F441FAA1FA9F335D00E2E3AF0E0E866
:101D300032D091505040E695001CCAF72BD0FE2FB0
:101D400029D0660F771F881FBB1F26173707480744
:101D5000AB07B0E809F0BB0B802DBF01FF279358FC
:101D60005F4F3AF09E3F510578F00C946C0F0C9445
:101D7000B70F5F3FE4F3983ED4F386957795679568
:101D8000B795F7959F5FC9F7880F911D9695879531
:101D900097F90895E1E0660F771F881FBB1F621750
:101DA00073078407BA0720F0621B730B840BBA0B0E
:101DB000EE1F88F7E09508950E949C0F88F09F57CA
:101DC00098F0B92F9927B751B0F0E1F0660F771F5F
:101DD000881F991F1AF0BA95C9F714C0B13091F055
:101DE0000E94B60FB1E008950C94B60F672F782FBC
:101DF0008827B85F39F0B93FCCF38695779567951A
:101E0000B395D9F73EF490958095709561957F4F85
:101E10008F4F9F4F0895E89409C097FB3EF490952B
:101E20008095709561957F4F8F4F9F4F9923A9F0B3
:101E3000F92F96E9BB279395F69587957795679542
:101E4000B795F111F8CFFAF4BB0F11F460FF1BC086
:101E50006F5F7F4F8F4F9F4F16C0882311F096E919
:101E600011C0772321F09EE8872F762F05C06623C7
:101E700071F096E8862F70E060E02AF09A95660F80
:101E8000771F881FDAF7880F9695879597F9089539
:101E9000990F0008550FAA0BE0E8FEEF161617067B
:101EA000E807F907C0F012161306E407F50798F0E3
:101EB000621B730B840B950B39F40A2661F0232BFC
:101EC000242B252B21F408950A2609F4A140A69578
:101ED0008FEF811D811D089597F99F6780E870E05D
:101EE00060E008959FEF80EC089500240A94161690
:101EF000170618060906089500240A9412161306F8
:101F0000140605060895092E0394000C11F4882385
:101F100052F0BB0F40F4BF2B11F460FF04C06F5FA1
:101F20007F4F8F4F9F4F089557FD9058440F551F77
:101F300059F05F3F71F04795880F97FB991F61F04B
:101F40009F3F79F087950895121613061406551FC2
:101F5000F2CF4695F1DF08C0161617061806991F2E
:101F6000F1CF86957105610508940895E894BB2723
:101F700066277727CB0197F908950E94480F08F448
:101F80008FEF08950E94D50F0C94830F0E94750F58
:101F900038F00E947C0F20F0952311F00C946C0F08
:101FA0000C94720F11240C94B70F0E94940F70F3CD
:101FB000959FC1F3950F50E0551F629FF001729FEE
:101FC000BB27F00DB11D639FAA27F00DB11DAA1FFD
:101FD000649F6627B00DA11D661F829F2227B00D4A
:101FE000A11D621F739FB00DA11D621F839FA00DD5
:101FF000611D221F749F3327A00D611D231F849F25
:10200000600D211D822F762F6A2F11249F5750407B
:102010009AF0F1F088234AF0EE0FFF1FBB1F661FF6
:10202000771F881F91505040A9F79E3F510580F0BF
:102030000C946C0F0C94B70F5F3FE4F3983ED4F30D
:10204000869577956795B795F795E7959F5FC1F763
:10205000FE2B880F911D9695879597F908950E94FC
:10206000480F880B990B08950F931F93CF93DF931D
:10207000CDB7DEB72E970FB6F894DEBF0FBECDBF3B
:102080000D891E8986E08C831A8309838FEF9FE771
:102090009E838D83AE01475E5F4F6F89788DCE0141
:1020A00001960E94260B2F813885020F131FF8011D
:1020B00010822E960FB6F894DEBF0FBECDBFDF9113
:0C20C000CF911F910F910895F894FFCF6D
:1020CC003A0200000000B60300000000D1023B02FF
:1020DC0068022303990277028B0200000000E203DE
:1020EC00B50331048B03AE039B038C030D0A00690B
:1020FC006E66006F76660023486D6D6D2E2E2E0079
:10210C00235448554E4445524D494C4C30322C00CA
:10211C00253032780023534E2C0023536574757090
:10212C0020636F6D706C6574650025303575002308
:0C213C00532C006E616E2C6E616E000072
:00000001FF
