:100000000C947C000C94A6000C94A6000C94A60002
:100010000C94A6000C94A6000C94A6000C94A600C8
:100020000C94A6000C94A6000C94A6000C94A600B8
:100030000C94A6000C94A6000C94A6000C94A600A8
:100040000C94A6000C94A6000C9417050C94A60022
:100050000C948B050C9461050C94A6000C94A600DE
:100060000C94A6000C94A6000C94C1050C94A60058
:100070000C94A6000C94A6000C94A6000C94A60068
:100080000C94A6000C94A6000C94A600000022007C
:10009000250028002B0002020202020202020404D0
:1000A000040404040404030303030303030301011E
:1000B0000101010101010102040810204080010238
:1000C0000408102040800102040810204080010232
:1000D0000408102040800000000203000A0B00000A
:1000E00000000504090800000000000000000000F6
:1000F000000000000000F10611241FBECFEFD0E485
:10010000DEBFCDBF14E0A0E0B1E0E4EAF5E100E03D
:100110000BBF02C007900D92A830B107D9F725E0B8
:10012000A8E0B4E001C01D92A635B207E1F710E0E7
:10013000CCE7D0E004C02197FE010E94C70ACB376C
:10014000D107C9F70E942A070C94D00A0C9400002A
:1001500090E0FC01EA52FF4F2491FC01EA54FF4F6A
:1001600034918A569F4FFC018491882341F12223C8
:10017000C1F022502A30A8F4E22FF0E0EE53FF4FF6
:100180000C94C70AF800FC00CC00E000D100D100BC
:10019000E400EA00EE00F400909180009F779093D5
:1001A0008000E82FF0E0EE0FFF1FE457FF4FA5910E
:1001B000B4918FB7F894EC913E2B3C938FBF089588
:1001C000909180009F7DEBCF9091B0009F779093AE
:1001D000B000E7CF9091B0009F7DF9CF9091900053
:1001E0009F7790939000DDCF909190009F7DF9CF05
:1001F00094B59F7794BDD5CF94B59F7DFBCF3FB786
:10020000F8948091A9049091AA04A091AB04B091B4
:10021000AC0426B5A89B05C02F3F19F00196A11D7F
:10022000B11D3FBFBA2FA92F982F8827BC01CD0140
:10023000620F711D811D911D43E0660F771F881F9E
:10024000991F4A95D1F7089508950895AF92BF92E6
:10025000CF92DF92EF92FF920F931F93CF93DF9392
:100260006C017B018B01040F151FEB015E01AE18C1
:10027000BF08C017D10759F06991D601ED91FC91E3
:100280000190F081E02DC6010995892B79F7C50110
:10029000DF91CF911F910F91FF90EF90DF90CF9062
:1002A000BF90AF900895FC01538D448D252F30E011
:1002B000842F90E0821B930B541710F0CF96089573
:1002C00001970895FC01918D828D981761F0A28DA0
:1002D000AE0FBF2FB11D5D968C91928D9F5F9F7366
:1002E000928F90E008958FEF9FEF0895FC01918D1C
:1002F000828D981731F0828DE80FF11D858D90E089
:1003000008958FEF9FEF0895FC01918D228D892F25
:1003100090E0805C9F4F821B91098F73992708950D
:100320008DEA94E00E94840121E0892B09F420E009
:10033000822F0895FC01A48DA80FB92FB11DA35AD7
:10034000BF4F2C91848D90E001968F739927848FF5
:10035000A689B7892C93A089B1898C918370806418
:100360008C93938D848D981306C00288F389E02DB9
:1003700080818F7D80830895EF92FF920F931F936A
:10038000CF93DF93EC0181E0888F9B8D8C8D981348
:100390001AC0E889F989808185FF15C09FB7F89454
:1003A000EE89FF896083E889F989808183708064A0
:1003B00080839FBF81E090E0DF91CF911F910F91EB
:1003C000FF90EF900895F62E0B8D10E00F5F1F4FFA
:1003D0000F731127E02E8C8D8E110CC00FB607FC09
:1003E000FACFE889F989808185FFF5CFCE010E9497
:1003F0009A01F1CFEB8DEC0FFD2FF11DE35AFF4F6A
:10040000F0829FB7F8940B8FEA89FB898081806224
:10041000CFCFCF93DF93EC01888D8823B9F0AA89E1
:10042000BB89E889F9898C9185FD03C0808186FDAF
:100430000DC00FB607FCF7CF8C9185FFF2CF8081FE
:1004400085FFEDCFCE010E949A01E9CFDF91CF91D8
:10045000089580E090E0892B29F00E94900181119D
:100460000E94000080E090E0892B49F080E090E05D
:10047000892B29F00E94000081110C94000008953E
:1004800085ED8093BC008091BC0084FDFCCF109270
:100490009F04089520917004260F3327331F2132C3
:1004A0003105ECF420919F04FC0190E080E02430C1
:1004B00069F082E00895A09170042191AC01405B45
:1004C0005B4FA40FB52FB11D2C930196861798F39F
:1004D00080917004680F6093700480E0089581E05B
:1004E00008950895E091A3048091A204E81730F4E0
:1004F000F0E0E05DFB4F808190E008958FEF9FEF8B
:1005000008959091A3048091A2042FEF3FEF9817D4
:1005100048F4E92FF0E0E05DFB4F208130E09F5F81
:100520009093A304C90108958091A2049091A3041B
:10053000891B990B0895CF92DF92EF92FF920F9350
:100540001F93CF93DF937C01CB018A0120912F046D
:10055000222389F0EB016B01C40ED51ECC15DD05FD
:1005600069F06991D701ED91FC910190F081E02D46
:10057000C7010995F3CF642F0E944A02C801DF9199
:10058000CF911F910F91FF90EF90DF90CF90089542
:10059000CF93DF931F92CDB7DEB7698320912F04ED
:1005A0002223F9F02091A004203258F021E030E01D
:1005B000FC013383228390E080E00F90DF91CF91A4
:1005C00008958091A104E82FF0E0E15FFB4F99814D
:1005D00090838F5F8093A1048093A00481E090E0DA
:1005E000ECCF61E0CE0101960E944A02F7CF90E085
:1005F00080E00895FC0101900020E9F73197AF01F8
:10060000481B590BBC018DEA94E00C9426018F9293
:100610009F92AF92BF920F931F93CF93DF93CDB76B
:10062000DEB7A1970FB6F894DEBF0FBECDBF19A2FB
:10063000423008F44AE08E010F5D1F4F842E912C4A
:10064000B12CA12CA50194010E94A50AE62FB901A5
:10065000CA01EA30F4F4E05DD801EE938D01232B5A
:10066000242B252B79F790E080E0109719F0CD012D
:100670000E94FA02A1960FB6F894DEBF0FBECDBF5E
:10068000DF91CF911F910F91BF90AF909F908F906E
:100690000895E95CE1CFCF93DF93D0E0C0E000970D
:1006A00019F00E94FA02EC0186E591E00E94FA023C
:1006B0008C0F9D1FDF91CF9108954F925F926F92A3
:1006C0007F928F929F92AF92BF92CF92DF92EF92E2
:1006D000FF920F931F93CF936B017C01742EAC019B
:1006E0009B010E94A00A882399F089E591E0CF91AF
:1006F0001F910F91FF90EF90DF90CF90BF90AF9040
:100700009F908F907F906F905F904F900C94FA0223
:1007100046015701E894B7F82FEF3FEF4FE75FE747
:10072000C501B4010E94A00A81110DC02FEF3FEF57
:100730004FE75FE7C501B4010E94D60818161CF404
:100740008DE591E0D4CF2FEF3FEF4FE75FE4C70196
:10075000B6010E942E0A18161CF481E691E0C7CF5C
:100760002FEF3FEF4FE75FECC701B6010E94D608BD
:1007700087FDF3CF20E030E0A901C701B6010E9458
:10078000D60810E000E087FF0AC06DE28DEA94E031
:100790000E94BC018C01F7FAF094F7F8F094C0E0E5
:1007A00060E070E080E09FE37C1641F020E030E004
:1007B00040E251E40E94DB08CF5FF6CFA70196012B
:1007C0000E946A082B013C010E944D094B015C010B
:1007D0004AE00E9407037C01E00EF11ECC23C1F128
:1007E000C501B4010E947C099B01AC01C301B201A7
:1007F0000E9469084B015C016EE28DEA94E00E9460
:10080000BC01E80EF91EC15018F120E030E040E2D2
:1008100051E4C501B4010E94330A2B013C010E943E
:100820004D094B01B12CA12C4AE0C501B4010E9435
:100830000703E80EF91EC501B4010E947C099B0163
:10084000AC01C301B2010E9469084B015C01DBCF1E
:10085000C701CF911F910F91FF90EF90DF90CF9044
:10086000BF90AF909F908F907F906F905F904F90D0
:100870000895CF92DF92EF92FF920F931F93CF9341
:10088000DF9300D01F92CDB7DEB720E929839A838A
:100890008B8381E080932F0480930E041092A10437
:1008A0001092A00443E050E0BE016F5F7F4F8AE4E6
:1008B00095E00E949B029091A004913208F041C003
:1008C00080919F048111FCCF80910E0422E020933F
:1008D0009F0421E020939E042FEF209393042FE0A8
:1008E00034E03093950420939404109297049093ED
:1008F00096041092980490919804880F892B809305
:10090000980480919D04813009F08BC010929D0461
:10091000809198048093BB008091BC0083FDF8CF48
:1009200085EC8093BC0080919F048230E1F380913C
:1009300093048F3F31F080919304803211F08091C5
:1009400093041092A1041092A00410922F0480919D
:100950009F048111FCCF81E080939F0480939E04CB
:100960009FEF9093930420E334E030939504209319
:1009700094041092970493E09093960480939804C3
:100980008091980482608093980480919D048130C6
:1009900009F049C010929D04809198048093BB0097
:1009A0008091BC0083FDF8CF85EC8093BC008091E2
:1009B0009F048130E1F3809197048430B0F58091F9
:1009C00097041092A3048093A20410E000E0C12CCD
:1009D000D12C76018AE495E00E948102092E000C58
:1009E000AA0BBB0B002E04C0880F991FAA1FBB1FA8
:1009F0000A94D2F7C82AD92AEA2AFB2A085F1F4F8D
:100A00000032110539F7C701B6010F900F900F9012
:100A1000DF91CF911F910F91FF90EF90DF90CF90DA
:100A2000089585EE7ECF85EEC0CF84E0CACF1F92B9
:100A30000F920FB60F9211242F933F938F939F9392
:100A4000AF93BF938091A5049091A604A091A704B1
:100A5000B091A8043091A40426E0230F2D3768F14B
:100A600029E8230F0396A11DB11D2093A4048093B0
:100A7000A5049093A604A093A704B093A804809122
:100A8000A9049091AA04A091AB04B091AC04019682
:100A9000A11DB11D8093A9049093AA04A093AB0457
:100AA000B093AC04BF91AF919F918F913F912F91E3
:100AB0000F900FBE0F901F9018950296A11DB11DAB
:100AC000D4CF1F920F920FB60F9211240BB60F9234
:100AD0002F933F934F935F936F937F938F939F9346
:100AE000AF93BF93EF93FF938DEA94E00E949A0136
:100AF000FF91EF91BF91AF919F918F917F916F91F6
:100B00005F914F913F912F910F900BBE0F900FBEB1
:100B10000F901F9018951F920F920FB60F921124ED
:100B20000BB60F922F938F939F93EF93FF93E091C8
:100B3000BD04F091BE048081E091C304F091C4042F
:100B400082FD1DC090818091C6048F5F8F732091BC
:100B5000C704821741F0E091C604F0E0E355FB4F73
:100B6000958F8093C604FF91EF919F918F912F9164
:100B70000F900BBE0F900FBE0F901F9018958081A5
:100B8000F2CF1F920F920FB60F9211240BB60F9255
:100B90002F933F934F935F936F937F938F939F9385
:100BA000AF93BF93EF93FF938091B900887F803616
:100BB00009F44DC008F040C0883209F4A9C028F5F6
:100BC000803109F49DC0C8F4882309F407C1883036
:100BD00009F496C0FF91EF91BF91AF919F918F91D2
:100BE0007F916F915F914F913F912F910F900BBE2D
:100BF0000F900FBE0F901F901895883109F488C090
:100C0000803241F78093930414C0803409F4A5C066
:100C100040F48033B9F38833E9F68093930485EC8C
:100C2000BCC0803509F489C0883509F49EC0883479
:100C300089F60E944002CECF883909F494C038F575
:100C4000883729F050F4883611F0803719F683E0A0
:100C500080939F041092920457C0883809F483C08F
:100C6000803919F0803809F0B5CF80919204803234
:100C700008F079C0E091920481E08E0F8093920495
:100C80008091BB00F0E0EE58FB4F80833DC0803B7D
:100C900039F0E0F4803A09F485C0883A09F09ACF37
:100CA00084E080939F041092710410927004E0918C
:100CB0009B04F0919C0409958091700481110FC0F0
:100CC00081E0809370041092500409C0803C09F4C4
:100CD000A6CF883C09F4A3CF883B09F07BCFE091F5
:100CE000710481E08E0F80937104F0E0E05BFB4FB4
:100CF00080818093BB00909171048091700431C019
:100D0000809198048093BB0085EC8093BC0062CFF7
:100D100090919704809196049817B8F58091940467
:100D200090919504E091970421E02E0F2093970471
:100D3000E80FF92FF11D8081E5CF209194043091C7
:100D40009504E091970481E08E0F80939704809141
:100D5000BB00E20FF32FF11D8083909197048091E7
:100D60009604981788F285E8D0CF209194043091AA
:100D70009504E091970481E08E0F80939704809111
:100D8000BB00E20FF32FF11D808380919E0481113F
:100D900050CF81E080939D0484EA8093BC00109240
:100DA0009F0418CF85EC8093BC0010929F04809123
:100DB0009204803230F4E0919204F0E0EE58FB4F60
:100DC00010826091920470E0E0919904F0919A048D
:100DD00082E794E0099510929204FCCE109293045D
:100DE00028CFEDEAF4E01382128288EE93E0A0E0CF
:100DF000B0E084839583A683B78326E331E0318313
:100E0000208325EC30E03587248724EC30E03787D9
:100E1000268720EC30E0318B208B21EC30E0338BC7
:100E2000228B22EC30E0358B248B26EC30E0378BA4
:100E3000268B118E128E138E148EEAE4F5E0138247
:100E4000128284839583A683B78388E491E091839B
:100E500080830895789484B5836084BD85B583606C
:100E600085BD80916E00816080936E0092E09093CA
:100E70008100809181008160809381008091800059
:100E80008160809380008091B10084608093B10084
:100E90008091B00081608093B00080919100836068
:100EA000809391008091900081608093900086E80B
:100EB00080937A001092C100E091BD04F091BE04CD
:100EC0009083E091B904F091BA041082E091BB04E0
:100ED000F091BC0488E080831092C504E091C104C5
:100EE000F091C20486E08083E091BF04F091C004D9
:100EF000808188698083E091BF04F091C004808183
:100F00008F7D80831092A3041092A2041092A104FA
:100F10001092A00410929F0481E080939E0410928E
:100F20009D0481E10E94A80080E10E94A8008091B8
:100F3000B9008E7F8093B9008091B9008D7F809336
:100F4000B90080E28093B80085E48093BC0084E21D
:100F500091E090939C0480939B0485E291E09093B0
:100F60009A048093990488E88093B80088E794E015
:100F70000E9439046B017C0185E691E00E94FA022F
:100F8000C701B6010E947C0920E030E040E752E44E
:100F90000E94330A20E030E040E052E30E94330A2E
:100FA00043E00E945D0381E891E00E944B0380E1F1
:100FB00094E00E9439046B017C0184E891E00E9476
:100FC000FA02C701B6010E947C0920E030E040E04F
:100FD00052E30E94330A20E030E040EA5FE30E94DF
:100FE000330A44E00E945D038CE991E00E944B03C8
:100FF00086E192E00E9439046B017C018FE991E067
:101000000E94FA02C701B6010E947C0920E030E08C
:1010100040E052E30E94330A20E030E04AEF53E41C
:101020000E94330A42E00E945D038BEB91E00E9434
:101030004B0380E192E00E9439046B017C018FEB4D
:1010400091E00E94FA02C701B6018827992740E182
:101050000E94070387EB91E00E94FA0285EE91E07F
:1010600029E1C216D10438F4F601EE0FFF1FE0505B
:10107000FF4F808191810E944B0384EF91E00E9499
:101080004B030E94FF004B015C0188EEC82E83E0F9
:10109000D82EE12CF12C0E94FF00681979098A09E9
:1010A0009B09683E734081059105A8F381E0C81A49
:1010B000D108E108F10828EE820E23E0921EA11C5F
:1010C000B11CC114D104E104F10429F70E942902E2
:1010D0004DCF5058BB27AA270E9481080C94F409D1
:1010E0000E94E60938F00E94ED0920F039F49F3F94
:1010F00019F426F40C94E3090EF4E095E7FB0C9444
:10110000DD09E92F0E94050A58F3BA176207730731
:101110008407950720F079F4A6F50C94270A0EF4BD
:10112000E0950B2EBA2FA02D0B01B90190010C01F7
:10113000CA01A0011124FF27591B99F0593F50F40F
:10114000503E68F11A16F040A22F232F342F442767
:10115000585FF3CF469537952795A795F04053955F
:10116000C9F77EF41F16BA0B620B730B840BBAF02F
:101170009150A1F0FF0FBB1F661F771F881FC2F79A
:101180000EC0BA0F621F731F841F48F487957795AE
:101190006795B795F7959E3F08F0B0CF9395880F68
:1011A00008F09927EE0F9795879508950E94B90941
:1011B00008F481E008950E94EF080C94F4090E945D
:1011C000ED0958F00E94E60940F029F45F3F29F04C
:1011D0000C94DD0951110C94280A0C94E3090E9427
:1011E000050A68F39923B1F3552391F3951B550B29
:1011F000BB27AA2762177307840738F09F5F5F4FEA
:10120000220F331F441FAA1FA9F335D00E2E3AF028
:10121000E0E832D091505040E695001CCAF72BD040
:10122000FE2F29D0660F771F881FBB1F2617370791
:101230004807AB07B0E809F0BB0B802DBF01FF27C3
:1012400093585F4F3AF09E3F510578F00C94DD09BA
:101250000C94280A5F3FE4F3983ED4F38695779583
:101260006795B795F7959F5FC9F7880F911D96957C
:10127000879597F90895E1E0660F771F881FBB1FD8
:10128000621773078407BA0720F0621B730B840B85
:10129000BA0BEE1F88F7E09508950E940D0A88F0BA
:1012A0009F5798F0B92F9927B751B0F0E1F0660F2A
:1012B000771F881F991F1AF0BA95C9F714C0B1306B
:1012C00091F00E94270AB1E008950C94270A672F35
:1012D000782F8827B85F39F0B93FCCF3869577959A
:1012E0006795B395D9F73EF4909580957095619583
:1012F0007F4F8F4F9F4F0895E89409C097FB3EF4AE
:1013000090958095709561957F4F8F4F9F4F992352
:10131000A9F0F92F96E9BB279395F69587957795D0
:101320006795B795F111F8CFFAF4BB0F11F460FF90
:101330001BC06F5F7F4F8F4F9F4F16C0882311F0E8
:1013400096E911C0772321F09EE8872F762F05C0FC
:10135000662371F096E8862F70E060E02AF09A9597
:10136000660F771F881FDAF7880F9695879597F98C
:101370000895990F0008550FAA0BE0E8FEEF161626
:101380001706E807F907C0F012161306E407F50779
:1013900098F0621B730B840B950B39F40A2661F0ED
:1013A000232B242B252B21F408950A2609F4A14090
:1013B000A6958FEF811D811D089597F99F6780E89D
:1013C00070E060E008959FEF80EC089500240A9497
:1013D0001616170618060906089500240A94121610
:1013E0001306140605060895092E0394000C11F443
:1013F000882352F0BB0F40F4BF2B11F460FF04C0F0
:101400006F5F7F4F8F4F9F4F089557FD9058440F48
:10141000551F59F05F3F71F04795880F97FB991F53
:1014200061F09F3F79F08795089512161306140610
:10143000551FF2CF4695F1DF08C01616170618069D
:10144000991FF1CF86957105610508940895E89478
:10145000BB2766277727CB0197F908950E94B90922
:1014600008F48FEF08950E94460A0C94F4090E9434
:10147000E60938F00E94ED0920F0952311F00C9454
:10148000DD090C94E30911240C94280A0E94050A32
:1014900070F3959FC1F3950F50E0551F629FF001C7
:1014A000729FBB27F00DB11D639FAA27F00DB11DE0
:1014B000AA1F649F6627B00DA11D661F829F222769
:1014C000B00DA11D621F739FB00DA11D621F839FF0
:1014D000A00D611D221F749F3327A00D611D231FC6
:1014E000849F600D211D822F762F6A2F11249F5714
:1014F00050409AF0F1F088234AF0EE0FFF1FBB1F17
:10150000661F771F881F91505040A9F79E3F5105D5
:1015100080F00C94DD090C94280A5F3FE4F3983EB8
:10152000D4F3869577956795B795F795E7959F5F7F
:10153000C1F7FE2B880F911D9695879597F9089511
:101540000E94B909880B990B0895A1E21A2EAA1BD3
:10155000BB1BFD010DC0AA1FBB1FEE1FFF1FA21763
:10156000B307E407F50720F0A21BB30BE40BF50B60
:10157000661F771F881F991F1A9469F760957095E9
:10158000809590959B01AC01BD01CF010895EE0FB0
:10159000FF1F0024001C0BBE0790F691E02D09945C
:0415A000F894FFCFED
:1015A400FB01060210021F0234023E0255026102D0
:1015B40071028D02A702C802D802EF0203030F03CF
:1015C4002B0346035D0382039803AE03CF03E603B4
:1015D400F60300000000BC01260153010902840146
:1015E4006201760100000000C8029B02F70271024A
:1015F4009402810272020D0A006E616E00696E66C9
:10160400006F7666004E6170C3A16A6563C3AD2046
:101614006E6170C49B74C3AD2028564D29203D20B3
:10162400002056004F6462C49B722070726F756410
:101634007520284962757329203D20002041004F00
:1016440074C3A1C48D6B79202846475F5350454528
:10165400445F4644424B29203D200020487A0053F1
:1016640074617620616C676F7269746D75202841AE
:101674004C474F524954484D5F53544154452920D7
:101684003D203078004E455A4EC3814DC39D5F5373
:10169400544156002D2D2D2D2D2D004D4F544F52BC
:1016A4005F49444C45004D4F544F525F49534400E9
:1016B4004D4F544F525F5452495354415445004D79
:1016C4004F544F525F4252414B455F4F4E5F53540C
:1016D400415254004D4F544F525F495044004D4FB6
:1016E400544F525F534C4F575F46495253545F43D4
:1016F40059434C45004D4F544F525F414C49474E5E
:10170400004D4F544F525F4F50454E5F4C4F4F501A
:10171400004D4F544F525F434C4F5345445F4C4F21
:101724004F505F554E414C49474E4544004D4F5430
:101734004F525F434C4F5345445F4C4F4F505F41B2
:101744004C49474E4544004D4F544F525F434C4F14
:101754005345445F4C4F4F505F4143544956455F96
:101764004252414B494E47004D4F544F525F534FE5
:1017740046545F53544F50004D4F544F525F52459F
:1017840043495243554C4154455F53544F50004DC7
:101794004F544F525F4252414B455F4F4E5F53543B
:1017A4004F50004D4F544F525F4641554C54004DDD
:1017B4004F544F525F4D5045545F4D4F544F525FFD
:1017C40053544F505F434845434B004D4F544F5281
:1017D4005F4D5045545F4D4F544F525F53544F50DB
:1017E4005F57414954004D4F544F525F4D5045543B
:1017F4005F4D4F544F525F4252414B45004D4F5441
:101804004F525F4D5045545F414C474F52495448E5
:101814004D5F504152414D45544552535F494E49E5
:1018240054004D4F544F525F4D5045545F524C5FDE
:101834004D454153555245004D4F544F525F4D5005
:1018440045545F4B455F4D454153555245004D4FFF
:10185400544F525F4D5045545F5354414C4C5F4379
:10186400555252454E545F4D454153555245004DD6
:101874004F544F525F4D5045545F544F525155454C
:101884005F4D4F4445004D4F544F525F4D504554AA
:101894005F444F4E45004D4F544F525F4D50455499
:0818A4005F4641554C54000061
:00000001FF
